{
  "_format": "hh-sol-artifact-1",
  "contractName": "FlashLoanSafetyNet",
  "sourceName": "contracts/FlashLoanSafetyNet.sol",
  "abi": [
    {
      "inputs": [],
      "stateMutability": "nonpayable",
      "type": "constructor"
    },
    {
      "anonymous": false,
      "inputs": [
        {
          "indexed": true,
          "internalType": "address",
          "name": "guardian",
          "type": "address"
        },
        {
          "indexed": false,
          "internalType": "string",
          "name": "reason",
          "type": "string"
        }
      ],
      "name": "EmergencyTriggered",
      "type": "event"
    },
    {
      "anonymous": false,
      "inputs": [
        {
          "indexed": true,
          "internalType": "address",
          "name": "guardian",
          "type": "address"
        }
      ],
      "name": "GuardianAdded",
      "type": "event"
    },
    {
      "anonymous": false,
      "inputs": [
        {
          "indexed": true,
          "internalType": "address",
          "name": "guardian",
          "type": "address"
        }
      ],
      "name": "GuardianRemoved",
      "type": "event"
    },
    {
      "anonymous": false,
      "inputs": [
        {
          "indexed": true,
          "internalType": "address",
          "name": "token",
          "type": "address"
        },
        {
          "indexed": false,
          "internalType": "uint256",
          "name": "amount",
          "type": "uint256"
        }
      ],
      "name": "LiquidityUpdated",
      "type": "event"
    },
    {
      "anonymous": false,
      "inputs": [
        {
          "indexed": true,
          "internalType": "address",
          "name": "borrower",
          "type": "address"
        },
        {
          "indexed": false,
          "internalType": "address[]",
          "name": "tokens",
          "type": "address[]"
        },
        {
          "indexed": false,
          "internalType": "uint256[]",
          "name": "amounts",
          "type": "uint256[]"
        },
        {
          "indexed": false,
          "internalType": "bool",
          "name": "safe",
          "type": "bool"
        },
        {
          "indexed": false,
          "internalType": "uint256",
          "name": "riskScore",
          "type": "uint256"
        }
      ],
      "name": "LoanChecked",
      "type": "event"
    },
    {
      "anonymous": false,
      "inputs": [
        {
          "indexed": true,
          "internalType": "address",
          "name": "borrower",
          "type": "address"
        },
        {
          "indexed": false,
          "internalType": "address[]",
          "name": "tokens",
          "type": "address[]"
        },
        {
          "indexed": false,
          "internalType": "uint256[]",
          "name": "amounts",
          "type": "uint256[]"
        },
        {
          "indexed": false,
          "internalType": "bool",
          "name": "success",
          "type": "bool"
        }
      ],
      "name": "LoanSimulated",
      "type": "event"
    },
    {
      "anonymous": false,
      "inputs": [
        {
          "indexed": true,
          "internalType": "address",
          "name": "oracle",
          "type": "address"
        }
      ],
      "name": "OracleUpdated",
      "type": "event"
    },
    {
      "anonymous": false,
      "inputs": [
        {
          "indexed": true,
          "internalType": "address",
          "name": "previousOwner",
          "type": "address"
        },
        {
          "indexed": true,
          "internalType": "address",
          "name": "newOwner",
          "type": "address"
        }
      ],
      "name": "OwnershipTransferred",
      "type": "event"
    },
    {
      "anonymous": false,
      "inputs": [
        {
          "indexed": false,
          "internalType": "address",
          "name": "account",
          "type": "address"
        }
      ],
      "name": "Paused",
      "type": "event"
    },
    {
      "anonymous": false,
      "inputs": [
        {
          "indexed": true,
          "internalType": "address",
          "name": "token",
          "type": "address"
        },
        {
          "indexed": false,
          "internalType": "uint256",
          "name": "score",
          "type": "uint256"
        }
      ],
      "name": "RiskScoreUpdated",
      "type": "event"
    },
    {
      "anonymous": false,
      "inputs": [
        {
          "indexed": true,
          "internalType": "address",
          "name": "token",
          "type": "address"
        }
      ],
      "name": "TokenAdded",
      "type": "event"
    },
    {
      "anonymous": false,
      "inputs": [
        {
          "indexed": true,
          "internalType": "address",
          "name": "token",
          "type": "address"
        }
      ],
      "name": "TokenRemoved",
      "type": "event"
    },
    {
      "anonymous": false,
      "inputs": [
        {
          "indexed": false,
          "internalType": "address",
          "name": "account",
          "type": "address"
        }
      ],
      "name": "Unpaused",
      "type": "event"
    },
    {
      "inputs": [],
      "name": "FEE_PRECISION",
      "outputs": [
        {
          "internalType": "uint256",
          "name": "",
          "type": "uint256"
        }
      ],
      "stateMutability": "view",
      "type": "function"
    },
    {
      "inputs": [],
      "name": "FLASH_LOAN_FEE",
      "outputs": [
        {
          "internalType": "uint256",
          "name": "",
          "type": "uint256"
        }
      ],
      "stateMutability": "view",
      "type": "function"
    },
    {
      "inputs": [
        {
          "internalType": "address",
          "name": "_guardian",
          "type": "address"
        }
      ],
      "name": "addGuardian",
      "outputs": [],
      "stateMutability": "nonpayable",
      "type": "function"
    },
    {
      "inputs": [
        {
          "internalType": "address",
          "name": "_token",
          "type": "address"
        },
        {
          "internalType": "uint256",
          "name": "_initialLiquidity",
          "type": "uint256"
        },
        {
          "internalType": "uint256",
          "name": "_riskScore",
          "type": "uint256"
        }
      ],
      "name": "addSupportedToken",
      "outputs": [],
      "stateMutability": "nonpayable",
      "type": "function"
    },
    {
      "inputs": [
        {
          "internalType": "address",
          "name": "borrower",
          "type": "address"
        },
        {
          "internalType": "address[]",
          "name": "tokens",
          "type": "address[]"
        },
        {
          "internalType": "uint256[]",
          "name": "amounts",
          "type": "uint256[]"
        }
      ],
      "name": "checkFlashLoan",
      "outputs": [
        {
          "internalType": "bool",
          "name": "safe",
          "type": "bool"
        },
        {
          "internalType": "uint256",
          "name": "riskScore",
          "type": "uint256"
        }
      ],
      "stateMutability": "nonpayable",
      "type": "function"
    },
    {
      "inputs": [
        {
          "internalType": "address",
          "name": "",
          "type": "address"
        }
      ],
      "name": "guardians",
      "outputs": [
        {
          "internalType": "bool",
          "name": "",
          "type": "bool"
        }
      ],
      "stateMutability": "view",
      "type": "function"
    },
    {
      "inputs": [],
      "name": "owner",
      "outputs": [
        {
          "internalType": "address",
          "name": "",
          "type": "address"
        }
      ],
      "stateMutability": "view",
      "type": "function"
    },
    {
      "inputs": [],
      "name": "paused",
      "outputs": [
        {
          "internalType": "bool",
          "name": "",
          "type": "bool"
        }
      ],
      "stateMutability": "view",
      "type": "function"
    },
    {
      "inputs": [],
      "name": "priceOracle",
      "outputs": [
        {
          "internalType": "contract IPriceOracle",
          "name": "",
          "type": "address"
        }
      ],
      "stateMutability": "view",
      "type": "function"
    },
    {
      "inputs": [
        {
          "internalType": "address",
          "name": "_guardian",
          "type": "address"
        }
      ],
      "name": "removeGuardian",
      "outputs": [],
      "stateMutability": "nonpayable",
      "type": "function"
    },
    {
      "inputs": [
        {
          "internalType": "address",
          "name": "_token",
          "type": "address"
        }
      ],
      "name": "removeSupportedToken",
      "outputs": [],
      "stateMutability": "nonpayable",
      "type": "function"
    },
    {
      "inputs": [],
      "name": "renounceOwnership",
      "outputs": [],
      "stateMutability": "nonpayable",
      "type": "function"
    },
    {
      "inputs": [],
      "name": "resolveEmergency",
      "outputs": [],
      "stateMutability": "nonpayable",
      "type": "function"
    },
    {
      "inputs": [
        {
          "internalType": "address",
          "name": "",
          "type": "address"
        }
      ],
      "name": "riskScores",
      "outputs": [
        {
          "internalType": "uint256",
          "name": "",
          "type": "uint256"
        }
      ],
      "stateMutability": "view",
      "type": "function"
    },
    {
      "inputs": [
        {
          "internalType": "address",
          "name": "_oracle",
          "type": "address"
        }
      ],
      "name": "setPriceOracle",
      "outputs": [],
      "stateMutability": "nonpayable",
      "type": "function"
    },
    {
      "inputs": [
        {
          "internalType": "address",
          "name": "receiver",
          "type": "address"
        },
        {
          "internalType": "address[]",
          "name": "tokens",
          "type": "address[]"
        },
        {
          "internalType": "uint256[]",
          "name": "amounts",
          "type": "uint256[]"
        },
        {
          "internalType": "bytes",
          "name": "params",
          "type": "bytes"
        }
      ],
      "name": "simulateFlashLoan",
      "outputs": [
        {
          "internalType": "bool",
          "name": "success",
          "type": "bool"
        }
      ],
      "stateMutability": "nonpayable",
      "type": "function"
    },
    {
      "inputs": [
        {
          "internalType": "address",
          "name": "",
          "type": "address"
        }
      ],
      "name": "supportedTokens",
      "outputs": [
        {
          "internalType": "bool",
          "name": "",
          "type": "bool"
        }
      ],
      "stateMutability": "view",
      "type": "function"
    },
    {
      "inputs": [
        {
          "internalType": "address",
          "name": "",
          "type": "address"
        }
      ],
      "name": "tokenLiquidity",
      "outputs": [
        {
          "internalType": "uint256",
          "name": "",
          "type": "uint256"
        }
      ],
      "stateMutability": "view",
      "type": "function"
    },
    {
      "inputs": [
        {
          "internalType": "address",
          "name": "newOwner",
          "type": "address"
        }
      ],
      "name": "transferOwnership",
      "outputs": [],
      "stateMutability": "nonpayable",
      "type": "function"
    },
    {
      "inputs": [
        {
          "internalType": "string",
          "name": "reason",
          "type": "string"
        }
      ],
      "name": "triggerEmergency",
      "outputs": [],
      "stateMutability": "nonpayable",
      "type": "function"
    },
    {
      "inputs": [
        {
          "internalType": "address",
          "name": "_token",
          "type": "address"
        },
        {
          "internalType": "uint256",
          "name": "_liquidity",
          "type": "uint256"
        }
      ],
      "name": "updateLiquidity",
      "outputs": [],
      "stateMutability": "nonpayable",
      "type": "function"
    },
    {
      "inputs": [
        {
          "internalType": "address",
          "name": "_token",
          "type": "address"
        },
        {
          "internalType": "uint256",
          "name": "_riskScore",
          "type": "uint256"
        }
      ],
      "name": "updateRiskScore",
      "outputs": [],
      "stateMutability": "nonpayable",
      "type": "function"
    }
  ],
  "bytecode": "0x6080604052348015600f57600080fd5b506017336042565b6000805460ff60a01b19168155338152600160208190526040909120805460ff191690911790556092565b600080546001600160a01b038381166001600160a01b0319831681178455604051919092169283917f8be0079c531659141344cd1fd0a4f28419497f9722a3daafe3b4186f6b6457e09190a35050565b6119e8806100a16000396000f3fe608060405234801561001057600080fd5b50600436106101425760003560e01c8063715018a6116100b8578063a526d83b1161007c578063a526d83b146102e1578063c869d9f5146102f4578063e63a391f14610307578063edd9587b14610310578063f2fde38b14610323578063f93305151461033657600080fd5b8063715018a61461029a57806376319190146102a25780638da5cb5b146102b55780638ffaacaa146102c65780639ff1192d146102ce57600080fd5b80634355f1a41161010a5780634355f1a4146101f5578063530e784f1461021f5780635c975abb146102325780635e5b87521461024457806368c4ac2614610264578063714041561461028757600080fd5b80630633b14a146101475780630a3bc28a1461017f5780630ef65e1b146101ad57806315c73afd146101c25780632630c12f146101ca575b600080fd5b61016a6101553660046113c3565b60016020526000908152604090205460ff1681565b60405190151581526020015b60405180910390f35b61019f61018d3660046113c3565b60036020526000908152604090205481565b604051908152602001610176565b6101c06101bb3660046113e5565b610349565b005b6101c0610410565b6005546101dd906001600160a01b031681565b6040516001600160a01b039091168152602001610176565b61020861020336600461145b565b610422565b604080519215158352602083019190915201610176565b6101c061022d3660046113c3565b61051a565b600054600160a01b900460ff1661016a565b61019f6102523660046113c3565b60046020526000908152604090205481565b61016a6102723660046113c3565b60026020526000908152604090205460ff1681565b6101c06102953660046113c3565b610612565b6101c0610663565b6101c06102b03660046113c3565b610675565b6000546001600160a01b03166101dd565b61019f600981565b6101c06102dc3660046113e5565b6106c6565b6101c06102ef3660046113c3565b6107cc565b61016a610302366004611523565b610879565b61019f61271081565b6101c061031e3660046115da565b610c2a565b6101c06103313660046113c3565b610e06565b6101c061034436600461160d565b610e7f565b610351610f2d565b6001600160a01b038216600090815260026020526040902054829060ff166103b65760405162461bcd60e51b8152602060048201526013602482015272151bdad95b881b9bdd081cdd5c1c1bdc9d1959606a1b60448201526064015b60405180910390fd5b6001600160a01b03831660008181526003602052604090819020849055517ffd02fa772f47635cdfd4c5ec945a4b20b410536bdd6c5cb6b68a58ef69b3468d906104039085815260200190565b60405180910390a2505050565b610418610f2d565b610420610f87565b565b60008061042d610fdc565b8483146104755760405162461bcd60e51b8152602060048201526016602482015275082e4e4c2f2e640d8cadccee8d040dad2e6dac2e8c6d60531b60448201526064016103ad565b846104b15760405162461bcd60e51b815260206004820152600c60248201526b456d7074792061727261797360a01b60448201526064016103ad565b6104be8787878787611029565b60405191935091506001600160a01b038816907faf94289391a371723d3a4e6b947feb0790548c8ac2a799654e6c791d133b5c7490610508908990899089908990899089906116c9565b60405180910390a29550959350505050565b610522610f2d565b6001600160a01b0381166105715760405162461bcd60e51b8152602060048201526016602482015275496e76616c6964206f7261636c65206164647265737360501b60448201526064016103ad565b6001600160a01b0381163b6105c85760405162461bcd60e51b815260206004820152601960248201527f4f7261636c65206d757374206265206120636f6e74726163740000000000000060448201526064016103ad565b600580546001600160a01b0319166001600160a01b0383169081179091556040517f3df77beb5db05fcdd70a30fc8adf3f83f9501b68579455adbd100b818094039490600090a250565b61061a610f2d565b6001600160a01b038116600081815260016020526040808220805460ff19169055517fb8107d0c6b40be480ce3172ee66ba6d64b71f6b1685a851340036e6e2e3e3c529190a250565b61066b610f2d565b61042060006112c4565b61067d610f2d565b6001600160a01b038116600081815260026020526040808220805460ff19169055517f4c910b69fe65a61f7531b9c5042b2329ca7179c77290aa7e2eb3afa3c8511fd39190a250565b6106ce610f2d565b6001600160a01b038216600090815260026020526040902054829060ff1661072e5760405162461bcd60e51b8152602060048201526013602482015272151bdad95b881b9bdd081cdd5c1c1bdc9d1959606a1b60448201526064016103ad565b606482111561077f5760405162461bcd60e51b815260206004820181905260248201527f5269736b2073636f7265206d757374206265206265747765656e20302d31303060448201526064016103ad565b6001600160a01b03831660008181526004602052604090819020849055517f989734652020b9f7aa8a99ab7dc7855f58e3801fa39bd25dc5d83995cbd2464c906104039085815260200190565b6107d4610f2d565b6001600160a01b03811661082a5760405162461bcd60e51b815260206004820152601860248201527f496e76616c696420677561726469616e2061646472657373000000000000000060448201526064016103ad565b6001600160a01b0381166000818152600160208190526040808320805460ff1916909217909155517f038596bb31e2e7d3d9f184d4c98b310103f6d7f5830e5eec32bffe6f1728f9699190a250565b6000610883610fdc565b8584146108cb5760405162461bcd60e51b8152602060048201526016602482015275082e4e4c2f2e640d8cadccee8d040dad2e6dac2e8c6d60531b60448201526064016103ad565b856109075760405162461bcd60e51b815260206004820152600c60248201526b456d7074792061727261797360a01b60448201526064016103ad565b6001600160a01b0388163b61095e5760405162461bcd60e51b815260206004820152601b60248201527f5265636569766572206d757374206265206120636f6e7472616374000000000060448201526064016103ad565b60005b86811015610aa5576002600089898481811061097f5761097f611706565b905060200201602081019061099491906113c3565b6001600160a01b0316815260208101919091526040016000205460ff166109f15760405162461bcd60e51b81526020600482015260116024820152702ab739bab83837b93a32b2103a37b5b2b760791b60448201526064016103ad565b60036000898984818110610a0757610a07611706565b9050602002016020810190610a1c91906113c3565b6001600160a01b03166001600160a01b0316815260200190815260200160002054868683818110610a4f57610a4f611706565b905060200201351115610a9d5760405162461bcd60e51b8152602060048201526016602482015275496e73756666696369656e74206c697175696469747960501b60448201526064016103ad565b600101610961565b5060008667ffffffffffffffff811115610ac157610ac161171c565b604051908082528060200260200182016040528015610aea578160200160208202803683370190505b50905060005b87811015610b4f576127106009888884818110610b0f57610b0f611706565b90506020020135610b209190611748565b610b2a9190611765565b828281518110610b3c57610b3c611706565b6020908102919091010152600101610af0565b50604051632483d72160e21b81526001600160a01b038a169063920f5c8490610b8a908b908b908b908b90889033908d908d906004016117b0565b6020604051808303816000875af1925050508015610bc5575060408051601f3d908101601f19168201909252610bc291810190611844565b60015b610bd25760009150610bd5565b91505b336001600160a01b03167fd376c74ffaea1e0d847761e140eb23398e0981a9863fab109fbdcf4b01d0591f8989898987604051610c16959493929190611866565b60405180910390a250979650505050505050565b610c32610f2d565b6001600160a01b038316610c805760405162461bcd60e51b8152602060048201526015602482015274496e76616c696420746f6b656e206164647265737360581b60448201526064016103ad565b6001600160a01b0383163b610cd75760405162461bcd60e51b815260206004820152601860248201527f546f6b656e206d757374206265206120636f6e7472616374000000000000000060448201526064016103ad565b6064811115610d285760405162461bcd60e51b815260206004820181905260248201527f5269736b2073636f7265206d757374206265206265747765656e20302d31303060448201526064016103ad565b6001600160a01b0383166000818152600260209081526040808320805460ff19166001179055600382528083208690556004909152808220849055517f784c8f4dbf0ffedd6e72c76501c545a70f8b203b30a26ce542bf92ba87c248a49190a2826001600160a01b03167ffd02fa772f47635cdfd4c5ec945a4b20b410536bdd6c5cb6b68a58ef69b3468d83604051610dc391815260200190565b60405180910390a2826001600160a01b03167f989734652020b9f7aa8a99ab7dc7855f58e3801fa39bd25dc5d83995cbd2464c8260405161040391815260200190565b610e0e610f2d565b6001600160a01b038116610e735760405162461bcd60e51b815260206004820152602660248201527f4f776e61626c653a206e6577206f776e657220697320746865207a65726f206160448201526564647265737360d01b60648201526084016103ad565b610e7c816112c4565b50565b3360009081526001602052604090205460ff16610ede5760405162461bcd60e51b815260206004820152601a60248201527f4e6f7420616e20617574686f72697a656420677561726469616e00000000000060448201526064016103ad565b610ee6611314565b336001600160a01b03167f66ccfeb54dc8c5489e0b2e934b4614efa13773ea8c268902e73af2a67aedc0fa8383604051610f219291906118a2565b60405180910390a25050565b6000546001600160a01b031633146104205760405162461bcd60e51b815260206004820181905260248201527f4f776e61626c653a2063616c6c6572206973206e6f7420746865206f776e657260448201526064016103ad565b610f8f611357565b6000805460ff60a01b191690557f5db9ee0a495bf2e6ff9c91a7834c1ba4fdd244a5e8aa4e537bd38aeae4b073aa335b6040516001600160a01b03909116815260200160405180910390a1565b600054600160a01b900460ff16156104205760405162461bcd60e51b815260206004820152601060248201526f14185d5cd8589b194e881c185d5cd95960821b60448201526064016103ad565b6005546000908190819081906060906001600160a01b0316156110c057600554604051634e91ecf960e11b81526001600160a01b0390911690639d23d9f290611078908c908c906004016118be565b600060405180830381865afa158015611095573d6000803e3d6000fd5b505050506040513d6000823e601f3d908101601f191682016040526110bd91908101906118d2565b90505b60005b8881101561129457600260008b8b848181106110e1576110e1611706565b90506020020160208101906110f691906113c3565b6001600160a01b0316815260208101919091526040016000205460ff161561128c576000600460008c8c8581811061113057611130611706565b905060200201602081019061114591906113c3565b6001600160a01b03166001600160a01b03168152602001908152602001600020549050600360008c8c8581811061117e5761117e611706565b905060200201602081019061119391906113c3565b6001600160a01b03166001600160a01b03168152602001908152602001600020548989848181106111c6576111c6611706565b9050602002013511156111d7575060645b6005546000906001600160a01b0316158015906111f45750835183105b156112495783838151811061120b5761120b611706565b60200260200101518a8a8581811061122557611225611706565b905060200201356112369190611748565b9050611242818661199f565b9450611273565b89898481811061125b5761125b611706565b9050602002013590508085611270919061199f565b94505b61127d8183611748565b611287908761199f565b955050505b6001016110c3565b5081156112ac576112a58284611765565b93506112b1565b600093505b6046841094505050509550959350505050565b600080546001600160a01b038381166001600160a01b0319831681178455604051919092169283917f8be0079c531659141344cd1fd0a4f28419497f9722a3daafe3b4186f6b6457e09190a35050565b61131c610fdc565b6000805460ff60a01b1916600160a01b1790557f62e78cea01bee320cd4e420270b5ea74000d11b0c9f74754ebdbfc544b05a258610fbf3390565b600054600160a01b900460ff166104205760405162461bcd60e51b815260206004820152601460248201527314185d5cd8589b194e881b9bdd081c185d5cd95960621b60448201526064016103ad565b80356001600160a01b03811681146113be57600080fd5b919050565b6000602082840312156113d557600080fd5b6113de826113a7565b9392505050565b600080604083850312156113f857600080fd5b611401836113a7565b946020939093013593505050565b60008083601f84011261142157600080fd5b50813567ffffffffffffffff81111561143957600080fd5b6020830191508360208260051b850101111561145457600080fd5b9250929050565b60008060008060006060868803121561147357600080fd5b61147c866113a7565b9450602086013567ffffffffffffffff81111561149857600080fd5b6114a48882890161140f565b909550935050604086013567ffffffffffffffff8111156114c457600080fd5b6114d08882890161140f565b969995985093965092949392505050565b60008083601f8401126114f357600080fd5b50813567ffffffffffffffff81111561150b57600080fd5b60208301915083602082850101111561145457600080fd5b60008060008060008060006080888a03121561153e57600080fd5b611547886113a7565b9650602088013567ffffffffffffffff81111561156357600080fd5b61156f8a828b0161140f565b909750955050604088013567ffffffffffffffff81111561158f57600080fd5b61159b8a828b0161140f565b909550935050606088013567ffffffffffffffff8111156115bb57600080fd5b6115c78a828b016114e1565b989b979a50959850939692959293505050565b6000806000606084860312156115ef57600080fd5b6115f8846113a7565b95602085013595506040909401359392505050565b6000806020838503121561162057600080fd5b823567ffffffffffffffff81111561163757600080fd5b611643858286016114e1565b90969095509350505050565b81835260208301925060008160005b8481101561168d576001600160a01b03611677836113a7565b168652602095860195919091019060010161165e565b5093949350505050565b81835260006001600160fb1b038311156116b057600080fd5b8260051b80836020870137939093016020019392505050565b6080815260006116dd60808301888a61164f565b82810360208401526116f0818789611697565b9415156040840152505060600152949350505050565b634e487b7160e01b600052603260045260246000fd5b634e487b7160e01b600052604160045260246000fd5b634e487b7160e01b600052601160045260246000fd5b808202811582820484141761175f5761175f611732565b92915050565b60008261178257634e487b7160e01b600052601260045260246000fd5b500490565b81835281816020850137506000828201602090810191909152601f909101601f19169091010190565b60a0815260006117c460a083018a8c61164f565b82810360208401526117d781898b611697565b838103604085015287518082526020808a0193509091019060005b818110156118105783518352602093840193909201916001016117f2565b50506001600160a01b03871660608501528381036080850152611834818688611787565b9c9b505050505050505050505050565b60006020828403121561185657600080fd5b815180151581146113de57600080fd5b60608152600061187a60608301878961164f565b828103602084015261188d818688611697565b91505082151560408301529695505050505050565b6020815260006118b6602083018486611787565b949350505050565b6020815260006118b660208301848661164f565b6000602082840312156118e457600080fd5b815167ffffffffffffffff8111156118fb57600080fd5b8201601f8101841361190c57600080fd5b805167ffffffffffffffff8111156119265761192661171c565b8060051b604051601f19603f830116810181811067ffffffffffffffff821117156119535761195361171c565b60405291825260208184018101929081018784111561197157600080fd5b6020850194505b8385101561199457845180825260209586019590935001611978565b509695505050505050565b8082018082111561175f5761175f61173256fea2646970667358221220f57bdf56177270105002e0f2e8359f629527df91b35aa403c463ced9e1a65a6664736f6c634300081c0033",
  "linkReferences": {},
  "deployedLinkReferences": {}
}