{
  "_format": "hh-sol-artifact-1",
  "contractName": "FlashLoanPriceOracle",
  "sourceName": "contracts/FlashLoanPriceOracle.sol",
  "abi": [
    {
      "inputs": [],
      "stateMutability": "nonpayable",
      "type": "constructor"
    },
    {
      "anonymous": false,
      "inputs": [
        {
          "indexed": true,
          "internalType": "address",
          "name": "provider",
          "type": "address"
        }
      ],
      "name": "DataProviderAdded",
      "type": "event"
    },
    {
      "anonymous": false,
      "inputs": [
        {
          "indexed": true,
          "internalType": "address",
          "name": "provider",
          "type": "address"
        }
      ],
      "name": "DataProviderRemoved",
      "type": "event"
    },
    {
      "anonymous": false,
      "inputs": [
        {
          "indexed": true,
          "internalType": "address",
          "name": "previousOwner",
          "type": "address"
        },
        {
          "indexed": true,
          "internalType": "address",
          "name": "newOwner",
          "type": "address"
        }
      ],
      "name": "OwnershipTransferred",
      "type": "event"
    },
    {
      "anonymous": false,
      "inputs": [
        {
          "indexed": true,
          "internalType": "address",
          "name": "asset",
          "type": "address"
        },
        {
          "indexed": false,
          "internalType": "uint256",
          "name": "price",
          "type": "uint256"
        }
      ],
      "name": "PriceUpdated",
      "type": "event"
    },
    {
      "inputs": [
        {
          "internalType": "address",
          "name": "provider",
          "type": "address"
        }
      ],
      "name": "addDataProvider",
      "outputs": [],
      "stateMutability": "nonpayable",
      "type": "function"
    },
    {
      "inputs": [
        {
          "internalType": "address",
          "name": "",
          "type": "address"
        }
      ],
      "name": "dataProviders",
      "outputs": [
        {
          "internalType": "bool",
          "name": "",
          "type": "bool"
        }
      ],
      "stateMutability": "view",
      "type": "function"
    },
    {
      "inputs": [
        {
          "internalType": "address",
          "name": "asset",
          "type": "address"
        }
      ],
      "name": "getAssetPrice",
      "outputs": [
        {
          "internalType": "uint256",
          "name": "",
          "type": "uint256"
        }
      ],
      "stateMutability": "view",
      "type": "function"
    },
    {
      "inputs": [
        {
          "internalType": "address[]",
          "name": "assets",
          "type": "address[]"
        }
      ],
      "name": "getAssetsPrices",
      "outputs": [
        {
          "internalType": "uint256[]",
          "name": "",
          "type": "uint256[]"
        }
      ],
      "stateMutability": "view",
      "type": "function"
    },
    {
      "inputs": [],
      "name": "owner",
      "outputs": [
        {
          "internalType": "address",
          "name": "",
          "type": "address"
        }
      ],
      "stateMutability": "view",
      "type": "function"
    },
    {
      "inputs": [
        {
          "internalType": "address",
          "name": "provider",
          "type": "address"
        }
      ],
      "name": "removeDataProvider",
      "outputs": [],
      "stateMutability": "nonpayable",
      "type": "function"
    },
    {
      "inputs": [],
      "name": "renounceOwnership",
      "outputs": [],
      "stateMutability": "nonpayable",
      "type": "function"
    },
    {
      "inputs": [
        {
          "internalType": "address",
          "name": "newOwner",
          "type": "address"
        }
      ],
      "name": "transferOwnership",
      "outputs": [],
      "stateMutability": "nonpayable",
      "type": "function"
    },
    {
      "inputs": [
        {
          "internalType": "address",
          "name": "asset",
          "type": "address"
        },
        {
          "internalType": "uint256",
          "name": "price",
          "type": "uint256"
        }
      ],
      "name": "updateAssetPrice",
      "outputs": [],
      "stateMutability": "nonpayable",
      "type": "function"
    },
    {
      "inputs": [
        {
          "internalType": "address[]",
          "name": "assets",
          "type": "address[]"
        },
        {
          "internalType": "uint256[]",
          "name": "prices",
          "type": "uint256[]"
        }
      ],
      "name": "updateAssetPrices",
      "outputs": [],
      "stateMutability": "nonpayable",
      "type": "function"
    }
  ],
  "bytecode": "0x6080604052348015600f57600080fd5b506017336035565b336000908152600260205260409020805460ff191660011790556085565b600080546001600160a01b038381166001600160a01b0319831681178455604051919092169283917f8be0079c531659141344cd1fd0a4f28419497f9722a3daafe3b4186f6b6457e09190a35050565b6109ef806100946000396000f3fe608060405234801561001057600080fd5b506004361061009e5760003560e01c8063902b008111610066578063902b0081146101265780639d23d9f214610139578063b3596f0714610159578063f2fde38b14610190578063f9244dd7146101a357600080fd5b80633728c97f146100a357806350910ad6146100b8578063715018a6146100cb578063780aac03146100d35780638da5cb5b1461010b575b600080fd5b6100b66100b13660046107ff565b6101b6565b005b6100b66100c6366004610829565b6102c7565b6100b6610371565b6100f66100e1366004610829565b60026020526000908152604090205460ff1681565b60405190151581526020015b60405180910390f35b6000546040516001600160a01b039091168152602001610102565b6100b6610134366004610897565b610385565b61014c610147366004610908565b6105a2565b604051610102919061094a565b610182610167366004610829565b6001600160a01b031660009081526001602052604090205490565b604051908152602001610102565b6100b661019e366004610829565b61066f565b6100b66101b1366004610829565b6106e8565b3360009081526002602052604090205460ff16806101de57506000546001600160a01b031633145b6102205760405162461bcd60e51b815260206004820152600e60248201526d139bdd08185d5d1a1bdc9a5e995960921b60448201526064015b60405180910390fd5b6001600160a01b03821661026e5760405162461bcd60e51b8152602060048201526015602482015274496e76616c6964206173736574206164647265737360581b6044820152606401610217565b6001600160a01b03821660008181526001602052604090819020839055517f0d86730737b142fc160892fa8a0f2db687a92a0e294d1ad70624cf5acef03b84906102bb9084815260200190565b60405180910390a25050565b6102cf610739565b6001600160a01b0381166103255760405162461bcd60e51b815260206004820152601860248201527f496e76616c69642070726f7669646572206164647265737300000000000000006044820152606401610217565b6001600160a01b038116600081815260026020526040808220805460ff19166001179055517fc2c86837bccb53b419b86bf9073f8c38739d282cd7853f2766cbfd98c26b9a209190a250565b610379610739565b6103836000610793565b565b3360009081526002602052604090205460ff16806103ad57506000546001600160a01b031633145b6103ea5760405162461bcd60e51b815260206004820152600e60248201526d139bdd08185d5d1a1bdc9a5e995960921b6044820152606401610217565b8281146104325760405162461bcd60e51b8152602060048201526016602482015275082e4e4c2f2e640d8cadccee8d040dad2e6dac2e8c6d60531b6044820152606401610217565b60005b8381101561059b5760008585838181106104515761045161098d565b90506020020160208101906104669190610829565b6001600160a01b0316036104b45760405162461bcd60e51b8152602060048201526015602482015274496e76616c6964206173736574206164647265737360581b6044820152606401610217565b8282828181106104c6576104c661098d565b90506020020135600160008787858181106104e3576104e361098d565b90506020020160208101906104f89190610829565b6001600160a01b031681526020810191909152604001600020558484828181106105245761052461098d565b90506020020160208101906105399190610829565b6001600160a01b03167f0d86730737b142fc160892fa8a0f2db687a92a0e294d1ad70624cf5acef03b848484848181106105755761057561098d565b9050602002013560405161058b91815260200190565b60405180910390a2600101610435565b5050505050565b606060008267ffffffffffffffff8111156105bf576105bf6109a3565b6040519080825280602002602001820160405280156105e8578160200160208202803683370190505b50905060005b83811015610667576001600086868481811061060c5761060c61098d565b90506020020160208101906106219190610829565b6001600160a01b03166001600160a01b03168152602001908152602001600020548282815181106106545761065461098d565b60209081029190910101526001016105ee565b509392505050565b610677610739565b6001600160a01b0381166106dc5760405162461bcd60e51b815260206004820152602660248201527f4f776e61626c653a206e6577206f776e657220697320746865207a65726f206160448201526564647265737360d01b6064820152608401610217565b6106e581610793565b50565b6106f0610739565b6001600160a01b038116600081815260026020526040808220805460ff19169055517f033dfbce3ad1803151dcc8f4ca7cf22c5745f11a6d3931072ce7a9c3016d5e6c9190a250565b6000546001600160a01b031633146103835760405162461bcd60e51b815260206004820181905260248201527f4f776e61626c653a2063616c6c6572206973206e6f7420746865206f776e65726044820152606401610217565b600080546001600160a01b038381166001600160a01b0319831681178455604051919092169283917f8be0079c531659141344cd1fd0a4f28419497f9722a3daafe3b4186f6b6457e09190a35050565b80356001600160a01b03811681146107fa57600080fd5b919050565b6000806040838503121561081257600080fd5b61081b836107e3565b946020939093013593505050565b60006020828403121561083b57600080fd5b610844826107e3565b9392505050565b60008083601f84011261085d57600080fd5b50813567ffffffffffffffff81111561087557600080fd5b6020830191508360208260051b850101111561089057600080fd5b9250929050565b600080600080604085870312156108ad57600080fd5b843567ffffffffffffffff8111156108c457600080fd5b6108d08782880161084b565b909550935050602085013567ffffffffffffffff8111156108f057600080fd5b6108fc8782880161084b565b95989497509550505050565b6000806020838503121561091b57600080fd5b823567ffffffffffffffff81111561093257600080fd5b61093e8582860161084b565b90969095509350505050565b602080825282518282018190526000918401906040840190835b81811015610982578351835260209384019390920191600101610964565b509095945050505050565b634e487b7160e01b600052603260045260246000fd5b634e487b7160e01b600052604160045260246000fdfea2646970667358221220b75149ec51e2af07b9390e546f9c32ad14323f788a4b2439adf7e25055eb80c464736f6c634300081c0033",
  "linkReferences": {},
  "deployedLinkReferences": {}
}