{
  "_format": "hh-sol-artifact-1",
  "contractName": "FlashLoanReceiver",
  "sourceName": "contracts/FlashLoanReceiver.sol",
  "abi": [
    {
      "inputs": [],
      "stateMutability": "nonpayable",
      "type": "constructor"
    },
    {
      "anonymous": false,
      "inputs": [
        {
          "indexed": false,
          "internalType": "bool",
          "name": "success",
          "type": "bool"
        }
      ],
      "name": "FlashLoanCompleted",
      "type": "event"
    },
    {
      "anonymous": false,
      "inputs": [
        {
          "indexed": false,
          "internalType": "address[]",
          "name": "tokens",
          "type": "address[]"
        },
        {
          "indexed": false,
          "internalType": "uint256[]",
          "name": "amounts",
          "type": "uint256[]"
        },
        {
          "indexed": false,
          "internalType": "uint256[]",
          "name": "premiums",
          "type": "uint256[]"
        }
      ],
      "name": "FlashLoanReceived",
      "type": "event"
    },
    {
      "inputs": [
        {
          "internalType": "address[]",
          "name": "assets",
          "type": "address[]"
        },
        {
          "internalType": "uint256[]",
          "name": "amounts",
          "type": "uint256[]"
        },
        {
          "internalType": "uint256[]",
          "name": "premiums",
          "type": "uint256[]"
        },
        {
          "internalType": "address",
          "name": "initiator",
          "type": "address"
        },
        {
          "internalType": "bytes",
          "name": "params",
          "type": "bytes"
        }
      ],
      "name": "executeOperation",
      "outputs": [
        {
          "internalType": "bool",
          "name": "",
          "type": "bool"
        }
      ],
      "stateMutability": "nonpayable",
      "type": "function"
    },
    {
      "inputs": [],
      "name": "owner",
      "outputs": [
        {
          "internalType": "address",
          "name": "",
          "type": "address"
        }
      ],
      "stateMutability": "view",
      "type": "function"
    },
    {
      "inputs": [
        {
          "internalType": "address",
          "name": "token",
          "type": "address"
        },
        {
          "internalType": "address",
          "name": "to",
          "type": "address"
        },
        {
          "internalType": "uint256",
          "name": "amount",
          "type": "uint256"
        }
      ],
      "name": "rescueTokens",
      "outputs": [],
      "stateMutability": "nonpayable",
      "type": "function"
    }
  ],
  "bytecode": "0x6080604052348015600f57600080fd5b50600080546001600160a01b031916331790556109b3806100316000396000f3fe608060405234801561001057600080fd5b50600436106100415760003560e01c80638da5cb5b14610046578063920f5c8414610076578063cea9d26f14610099575b600080fd5b600054610059906001600160a01b031681565b6040516001600160a01b0390911681526020015b60405180910390f35b610089610084366004610670565b6100ae565b604051901515815260200161006d565b6100ac6100a736600461078a565b6101c6565b005b60007f8bbae415a80ff1c56b5199fd8b3bd7c5974c39e28f8d88c41d55f5e366ab0ea78a8a8a8a8a8a6040516100e9969594939291906107f8565b60405180910390a160005b8981101561018157600087878381811061011057610110610870565b905060200201358a8a8481811061012957610129610870565b9050602002013561013a9190610886565b905061017833828e8e8681811061015357610153610870565b905060200201602081019061016891906108ad565b6001600160a01b0316919061022b565b506001016100f4565b50604051600181527fb02100ce618f6af814e356e32df70eb0bfafb7ede7cb1a1b00557d1578a13a249060200160405180910390a15060019998505050505050505050565b6000546001600160a01b031633146102125760405162461bcd60e51b815260206004820152600a60248201526927b7363c9037bbb732b960b11b60448201526064015b60405180910390fd5b6102266001600160a01b0384168383610373565b505050565b8015806102a55750604051636eb1769f60e11b81523060048201526001600160a01b03838116602483015284169063dd62ed3e90604401602060405180830381865afa15801561027f573d6000803e3d6000fd5b505050506040513d601f19601f820116820180604052508101906102a391906108cf565b155b6103105760405162461bcd60e51b815260206004820152603660248201527f5361666545524332303a20617070726f76652066726f6d206e6f6e2d7a65726f60448201527520746f206e6f6e2d7a65726f20616c6c6f77616e636560501b6064820152608401610209565b6040516001600160a01b03831660248201526044810182905261022690849063095ea7b360e01b906064015b60408051601f198184030181529190526020810180516001600160e01b03166001600160e01b0319909316929092179091526103a3565b6040516001600160a01b03831660248201526044810182905261022690849063a9059cbb60e01b9060640161033c565b60006103f8826040518060400160405280602081526020017f5361666545524332303a206c6f772d6c6576656c2063616c6c206661696c6564815250856001600160a01b03166104789092919063ffffffff16565b905080516000148061041957508080602001905181019061041991906108e8565b6102265760405162461bcd60e51b815260206004820152602a60248201527f5361666545524332303a204552433230206f7065726174696f6e20646964206e6044820152691bdd081cdd58d8d9595960b21b6064820152608401610209565b6060610487848460008561048f565b949350505050565b6060824710156104f05760405162461bcd60e51b815260206004820152602660248201527f416464726573733a20696e73756666696369656e742062616c616e636520666f6044820152651c8818d85b1b60d21b6064820152608401610209565b600080866001600160a01b0316858760405161050c919061092e565b60006040518083038185875af1925050503d8060008114610549576040519150601f19603f3d011682016040523d82523d6000602084013e61054e565b606091505b509150915061055f8783838761056a565b979650505050505050565b606083156105d95782516000036105d2576001600160a01b0385163b6105d25760405162461bcd60e51b815260206004820152601d60248201527f416464726573733a2063616c6c20746f206e6f6e2d636f6e74726163740000006044820152606401610209565b5081610487565b61048783838151156105ee5781518083602001fd5b8060405162461bcd60e51b8152600401610209919061094a565b60008083601f84011261061a57600080fd5b50813567ffffffffffffffff81111561063257600080fd5b6020830191508360208260051b850101111561064d57600080fd5b9250929050565b80356001600160a01b038116811461066b57600080fd5b919050565b600080600080600080600080600060a08a8c03121561068e57600080fd5b893567ffffffffffffffff8111156106a557600080fd5b6106b18c828d01610608565b909a5098505060208a013567ffffffffffffffff8111156106d157600080fd5b6106dd8c828d01610608565b90985096505060408a013567ffffffffffffffff8111156106fd57600080fd5b6107098c828d01610608565b909650945061071c905060608b01610654565b925060808a013567ffffffffffffffff81111561073857600080fd5b8a01601f81018c1361074957600080fd5b803567ffffffffffffffff81111561076057600080fd5b8c602082840101111561077257600080fd5b60208201935080925050509295985092959850929598565b60008060006060848603121561079f57600080fd5b6107a884610654565b92506107b660208501610654565b9150604084013590509250925092565b81835260006001600160fb1b038311156107df57600080fd5b8260051b80836020870137939093016020019392505050565b6060808252810186905260008760808301825b89811015610839576001600160a01b0361082484610654565b1682526020928301929091019060010161080b565b50838103602085015261084d81888a6107c6565b91505082810360408401526108638185876107c6565b9998505050505050505050565b634e487b7160e01b600052603260045260246000fd5b808201808211156108a757634e487b7160e01b600052601160045260246000fd5b92915050565b6000602082840312156108bf57600080fd5b6108c882610654565b9392505050565b6000602082840312156108e157600080fd5b5051919050565b6000602082840312156108fa57600080fd5b815180151581146108c857600080fd5b60005b8381101561092557818101518382015260200161090d565b50506000910152565b6000825161094081846020870161090a565b9190910192915050565b602081526000825180602084015261096981604085016020870161090a565b601f01601f1916919091016040019291505056fea26469706673582212206803fd535f0e2d7cdf19284cd8eb9147f4973cf5e81c7244bfac1040a7ede94864736f6c634300081c0033",
  "linkReferences": {},
  "deployedLinkReferences": {}
}